:040000000DEF00F010
:04000800A9EF17F055
:06001800FF00FAEF25F0E5
:100E000000D84900004E547E519257AA5700000066
:100E100000000000000000000000000000000000D2
:100E20000000000000000000003C571E5700570063
:100E3000000000004B00C9EC2BF00009D8B423EFF0
:100E400007F025EF07F0DEEF09F027EC2AF00501A7
:100E5000E66F0601C451D8A430EF07F032EF07F077
:100E6000E9EF07F0C1EF07F00601C46B0501F56B70
:100E7000000EF36F000EF26FFD6BDEEF09F04E0E09
:100E80000601C46F0501F56B090EF46FDEEF09F082
:100E9000540E0601C46F42EF07F00601C46B050152
:100EA000F56B59EC20F0A0C5BEF5A1C5BFF5A2C5F4
:100EB000C0F5A3C5C1F54EEC1EF0BEC5F0F5BFC52B
:100EC000F1F5140E0501686F000E696F380E6A6F38
:100ED000F0C56BF5F1C56CF5BAEC25F076EC2AF0AF
:100EE000DEEF09F00601C46B0501F56B0AEC29F091
:100EF0000601FA6B6EEF07F00601C46B0501F56B96
:100F000084EC27F0010E0601FA6F6EEF07F0060180
:100F1000C46B0501F56BFE6B000E06019B6F000EA6
:100F20009A6F6EEF07F00601C46B0501F56B010EB9
:100F3000FE6F000E06019B6F000E9A6F76EC2AF092
:100F4000010E05016E6F2C0E6D6F030E706FE80EB3
:100F50006F6FF6EC22F0DEEF09F0C0BAB2EF07F0E7
:100F6000B5EF07F0010EB6EF07F0000EFF0AC86FED
:100F7000C83BC847C050C819DF0BC819C06EDEEFA8
:100F800009F00501E651430AD8B487EF07F0070AD4
:100F9000D8B4ADEF07F00F0AD8B472EF07F0050A26
:100FA000D8B43FEF07F01A0AD8B448EF07F00E0A9A
:100FB000D8B44DEF07F0390AD8B493EF07F0080A18
:100FC000D8B47CEF07F01E0AD8B434EF07F0DEEF98
:100FD00009F04E0EC419D8A4F0EF07F0F2EF07F0B5
:100FE00001EF09F0CB0E0501F525D96EDA6A060E80
:100FF000DA22E6C5DFF4F52BF451F519D8A403EF96
:1010000008F005EF08F0DEEF09F0000EE76F000EC4
:10101000E86F000EE96F000EEA6FE06B4E0EE027FE
:10102000000EE36F000EE26F20EF08F0CB0EE2251A
:10103000D96E060EE321DA6EDF50E027E24BE32B98
:10104000FF0EF425C86FC96BFF0EC923C851E25DBE
:10105000E351800ACA6FC951800ACA59D8A033EF38
:1010600008F035EF08F016EF08F0CA0EF425D96E37
:10107000DA6A060EDA22E051DE18D8A442EF08F050
:1010800044EF08F074EF08F0CE0E606F050E616F4C
:10109000CB0E626F060E636F000E656F040E646FF9
:1010A00078EC25F00501D26B0601D1510501C96F1D
:1010B000C86B0601CF51D0110501CA6FCB6BC85167
:1010C000CA11CC6FC951CB11CD6F0601D2510501A8
:1010D000CC13000ECD13CCC5E7F5CDC5E8F5000E59
:1010E000E8BFFF0EE96FEA6F0C0EE719E811E9118E
:1010F000EA11D8A47EEF08F080EF08F08BEF08F03B
:10110000A00E0601886F690E896F960E8A6F230EF6
:101110008B6FD0EF08F0180EE719E811E911EA110A
:10112000D8A495EF08F097EF08F0A2EF08F0400E72
:101130000601886FD30E896F2C0E8A6F470E8B6F56
:10114000D0EF08F0240EE719E811E911EA11D8A44C
:10115000ACEF08F0AEEF08F0B9EF08F0E00E0601D2
:10116000886F3C0E896FC30E8A6F6A0E8B6FD0EF4B
:1011700008F0300EE719E811E911EA11D8A4C3EF1D
:1011800008F0C5EF08F0D0EF08F0C00E0601886F38
:101190000A0E896FA00E8A6F760E8B6FD0EF08F063
:1011A00088C684F689C685F68AC686F68BC687F613
:1011B000050E0501686F000E696F380E6A6F88C6EC
:1011C0006BF589C66CF58AC66DF58BC66EF5D8ECE5
:1011D0001FF00A0E0501686F000E696F380E6A6F06
:1011E00084C66BF585C66CF586C66DF587C66EF54B
:1011F000D8EC1FF00601C46B0501F56BF46B6EEFC4
:1012000007F0540EC419D8A408EF09F00AEF09F04A
:10121000DEEF09F0CB0E0501F525D96EDA6A060E70
:10122000DA22E6C5DFF4F52BF451F519D8A41BEF4B
:1012300009F01DEF09F0DEEF09F0000ED86F000E87
:10124000D96F000EDA6F000EDB6F000EDC6F000E40
:10125000DD6F000EDE6F000EDF6FE16B540EE127D5
:10126000000EE56F000EE46F40EF09F0CB0EE425B1
:10127000D96E060EE521DA6EDF50E127E44BE52B4F
:10128000FF0EF425C86FC96BFF0EC923C851E45D7A
:10129000E551800ACA6FC951800ACA59D8A053EFD4
:1012A00009F055EF09F036EF09F0CA0EF425D96EB2
:1012B000DA6A060EDA22E151DE18D8A462EF09F0EC
:1012C00064EF09F094EF09F0D30E606F050E616FC3
:1012D000CB0E626F060E636F000E656F040E646FB7
:1012E00078EC25F00501D76B0601D1510501C96FD6
:1012F000C86B0601CF51D0110501CA6FCB6BC85125
:10130000CA11CC6FC951CB11CD6F0601D251050165
:10131000CC13000ECD13CCC5D8F5CDC5D9F5000E34
:10132000D9BFFF0EDA6FDB6F000E686F000E696FBA
:10133000380E6A6F000E6B6F000E6C6F000E6D6FD3
:10134000000E6E6FD8EC1FF0ECC5DCF5EDC5DDF5D9
:10135000EEC5DEF5EFC5DFF5D8C560F5D9C561F599
:10136000DAC562F5DBC563F5100E0501646F270E63
:10137000656F000E666F000E676FE7EC26F00501E3
:10138000DC516025EC6FDD516121ED6FDE51622192
:10139000EE6FDF516321EF6F000E686F000E696F13
:1013A000380E6A6FECC56BF5EDC56CF5EEC56DF5E5
:1013B000EFC56EF5D8EC1FF0FAEF08F0120005014A
:1013C0008A51800B936F8A518A25956F89AFEBEF15
:1013D00009F0EDEF09F0EEEF09F095819551D8B4E1
:1013E000F4EF09F0F6EF09F00AEF0AF09529D8A416
:1013F000FCEF09F0FEEF09F006EF0AF0000E876F30
:10140000000E886F000E896F000E8A6F898F8A6BBD
:1014100012EF0AF0000E876F000E886F000E896FC2
:10142000000E8A6F8E51800B946F93519419D8B42B
:101430001CEF0AF01EEF0AF01FEF0AF0938D8E5199
:101440008E25946F8DAF27EF0AF029EF0AF02AEF6F
:101450000AF094819451D8B430EF0AF032EF0AF0D8
:1014600046EF0AF09429D8A438EF0AF03AEF0AF0D0
:1014700042EF0AF0000E8B6F000E8C6F000E8D6F26
:10148000000E8E6F8D8F8E6B4EEF0AF0000E8B6FFD
:10149000000E8C6F000E8D6F000E8E6F9551945D57
:1014A000D8B055EF0AF057EF0AF07EEF0AF093AD8F
:1014B0005CEF0AF05EEF0AF060EF0AF0800E931B1B
:1014C00095C596F594C595F596C594F587C596F599
:1014D0008BC587F596C58BF588C596F58CC588F5BF
:1014E00096C58CF589C596F58DC589F596C58DF59A
:1014F0008AC596F58EC58AF596C58EF5966B95517B
:1015000094C58FF5906B8F5F000E905B90BF92EF4C
:101510000AF0905109E11A0E8F5DD8A092EF0AF0FF
:1015200094EF0AF0CBEF0AF08751881189118A11E4
:10153000D8A49DEF0AF0A0EF0AF0010EA1EF0AF087
:10154000000E966F000E876F000E886F000E896F79
:10155000000E8A6F94C595F5D4EF0AF096A1B3EF0B
:101560000AF0B5EF0AF0BBEF0AF0D8909631010906
:10157000966FBDEF0AF0D890963387A1C2EF0AF0BC
:10158000C4EF0AF0C5EF0AF0968F8A358A338933A3
:1015900088338733952B9451955DD8A0D2EF0AF00C
:1015A000D4EF0AF0AEEF0AF093BDD9EF0AF0DBEF0B
:1015B0000AF01BEF0BF09551D8A4E1EF0AF0E3EF2E
:1015C0000AF0EDEF0AF0000E876F000E886F000E34
:1015D000896F000E8A6F3AEF0CF08B5187278C5180
:1015E00088238D5189238E518A238AA1FAEF0AF02C
:1015F000FCEF0AF0A8EF0BF096A101EF0BF003EF60
:101600000BF009EF0BF0D89096310109966F0BEFB4
:101610000BF0D890963387A110EF0BF012EF0BF080
:1016200013EF0BF0968F8A358A33893388338733EB
:10163000952BA8EF0BF08B51875D8C5188598D51FC
:1016400089598A51800A8F6F8E51800A8F59D8B07C
:101650002CEF0BF02EEF0BF059EF0BF087518B5D59
:101660008F6F88518C59906F89518D59916F8A5124
:101670008E59926FFF0E8F25876FFF0E9021886F16
:10168000FF0E9121896FFF0E92218A6F800E931BAE
:10169000966D9651D8A44FEF0BF051EF0BF061EF20
:1016A0000BF0010E8727000E882389238A2361EF20
:1016B0000BF08B51875F8C51885B8D51895B8E510C
:1016C0008A5B8751881189118A11D8A46AEF0BF0BF
:1016D0006CEF0BF0A1EF0BF09651D8A472EF0BF06A
:1016E00074EF0BF0A1EF0BF0000E876F000E886F08
:1016F000000E896F000E8A6F3AEF0CF0D890873792
:10170000883789378A3796AF88EF0BF08AEF0BF06E
:101710008BEF0BF0878196A190EF0BF092EF0BF01F
:1017200096EF0BF0D880963798EF0BF0D89096375D
:101730009551D8B49EEF0BF0A0EF0BF0A1EF0BF09A
:10174000950789AFA6EF0BF0A8EF0BF07EEF0BF03B
:10175000946B96AFAEEF0BF0B0EF0BF0C8EF0BF061
:1017600096C58FF57F0E8F17D8B4B9EF0BF0BBEF8E
:101770000BF0BFEF0BF0010E946FC8EF0BF087A1D9
:10178000C4EF0BF0C6EF0BF0C8EF0BF0BBEF0BF0A4
:101790009451D8B4CEEF0BF0D0EF0BF0FBEF0BF081
:1017A000010E8727000E882389238A238AA1DBEF75
:1017B0000BF0DDEF0BF0FBEF0BF087C58FF588C565
:1017C00090F589C591F58AC592F59235923391339A
:1017D00090338F338FC587F590C588F591C589F50E
:1017E00092C58AF59529D8B4F8EF0BF0FAEF0BF013
:1017F000FBEF0BF0952B9529D8B401EF0CF003EF1C
:101800000CF00BEF0CF09551D8A409EF0CF00BEF96
:101810000CF01CEF0CF0000E876F000E886F000EAE
:10182000896F000E8A6F9551D8A419EF0CF01BEF49
:101830000CF01CEF0CF0936B95A121EF0CF023EF53
:101840000CF026EF0CF0898F27EF0CF0899FD890D1
:1018500095318A6F93AF2FEF0CF031EF0CF032EF30
:101860000CF08A8F87C587F588C588F589C589F505
:101870008AC58AF5120005017151800B7A6F71518A
:101880007125806F70AF47EF0CF049EF0CF04AEF15
:101890000CF080818051D8B450EF0CF052EF0CF076
:1018A00065EF0CF08029D8A458EF0CF05AEF0CF03B
:1018B00062EF0CF0000E6E6F000E6F6F000E706F17
:1018C000000E716F708F6DEF0CF0000E6E6F000EDA
:1018D0006F6F000E706F000E716F7551800B7A1B69
:1018E000755175257F6F74AF78EF0CF07AEF0CF0BF
:1018F0007BEF0CF07F817F51D8B481EF0CF083EF48
:101900000CF096EF0CF07F29D8A489EF0CF08BEF48
:101910000CF093EF0CF0000E726F000E736F000E60
:10192000746F000E756F748F9EEF0CF0000E726F67
:10193000000E736F000E746F000E756F7F51D8B478
:10194000A4EF0CF0A6EF0CF0AEEF0CF08051D8A491
:10195000ACEF0CF0AEEF0CF0B8EF0CF0000E6E6FC9
:10196000000E6F6F000E706F000E716F4EEF0EF075
:1019700074516E03F3C485F5F4C486F585517B6F0D
:101980007C6B7D6B7E6B8651816F826B836B846B0E
:1019900073516F03F3C485F5F4C486F585517B2735
:1019A000000E7C237D237E2386518127000E822317
:1019B0008323842372517003F3C485F5F4C486F540
:1019C00085517B27000E7C237D237E238651812732
:1019D000000E8223832384237DC57EF57CC57DF59F
:1019E0007BC57CF57B6B72516F03F3C485F5F4C442
:1019F00086F585517B2786517C23000E7D23000EC2
:101A00007E2373516E03F3C485F5F4C486F58551C6
:101A10007B2786517C23000E7D23000E7E237DC50F
:101A20007EF57CC57DF57BC57CF57B6B72516E03C5
:101A3000F3C485F5F4C486F585517B2786517C2354
:101A4000000E7D23000E7E2374516F03F3C485F5D1
:101A5000F4C486F58551812786518223000E8323A5
:101A6000000E842373517003F3C485F5F4C486F526
:101A70008551812786518223000E8323000E842303
:101A800074517003F3C485F5F4C486F58551766FFF
:101A90008651776F786B796B78C579F577C578F56E
:101AA00076C577F5766B7651812777518223785109
:101AB0008323795184237BC576F57CC577F57DC575
:101AC00078F57EC579F5190E6BEF0DF0D890793366
:101AD000783377337633E82E66EF0DF07651812731
:101AE0007751822378518323795184237DC57EF5F4
:101AF0007CC57DF57BC57CF57B6B7F5180C576F51C
:101B0000776B7627000E7723820E7625856FFF0E82
:101B10007721866FA1EF0DF0D89081378237833718
:101B200084377EAF96EF0DF098EF0DF099EF0DF042
:101B30008181D8907B377C377D377E378507D8A069
:101B4000860783AFA6EF0DF0A8EF0DF08CEF0DF038
:101B50007F6B7EAFAEEF0DF0B0EF0DF0D4EF0DF078
:101B6000FF0E7B15766FFF0E7C15776FFF0E7D15D0
:101B7000786F7F0E7E15796F765177117811791114
:101B8000D8B4C5EF0DF0C7EF0DF0CBEF0DF0010E9F
:101B90007F6FD4EF0DF081A1D0EF0DF0D2EF0DF0FB
:101BA000D4EF0DF0C7EF0DF07F51D8B4DAEF0DF0A0
:101BB000DCEF0DF000EF0EF0010E8127000E822306
:101BC0008323842384A1E7EF0DF0E9EF0DF000EF0C
:101BD0000EF081C576F582C577F583C578F584C5A5
:101BE00079F57935793378337733763376C581F57E
:101BF00077C582F578C583F579C584F5854B862B45
:101C000086BF0BEF0EF0865108E18529D8A00BEFB7
:101C10000EF00DEF0EF017EF0EF0000E816F000EBC
:101C2000826F800E836F7F0E846F44EF0EF086BF4D
:101C300024EF0EF0865106E18505D8B022EF0EF0B4
:101C400024EF0EF02FEF0EF0000E816F000E826F6A
:101C5000000E836F000E846F7A6B44EF0EF085C523
:101C600080F5FF0E8117FF0E82177F0E8317000E7F
:101C7000841780A13EEF0EF040EF0EF041EF0EF022
:101C8000838FD8908031846F7A51841381C56EF52B
:101C900082C56FF583C570F584C571F512001250C9
:101CA000800B1B6E12501224216E11AE5AEF0EF0F3
:101CB0005CEF0EF05DEF0EF021802150D8B463EFA1
:101CC0000EF065EF0EF078EF0EF02128D8A46BEF40
:101CD0000EF06DEF0EF075EF0EF0000E0F6E000EB1
:101CE000106E000E116E000E126E118E80EF0EF04F
:101CF000000E0F6E000E106E000E116E000E126EB2
:101D00001650800B1B1A16501624206E15AE8BEF42
:101D10000EF08DEF0EF08EEF0EF020802050D8B434
:101D200094EF0EF096EF0EF0A9EF0EF02028D8A455
:101D30009CEF0EF09EEF0EF0A6EF0EF0000E136E6D
:101D4000000E146E000E156E000E166E158EB1EF9D
:101D50000EF0000E136E000E146E000E156E000EC7
:101D6000166E2050D8B4B7EF0EF0B9EF0EF0C1EFF9
:101D70000EF02150D8A4BFEF0EF0C1EF0EF0CBEF64
:101D80000EF0000E0F6E000E106E000E116E000EA3
:101D9000126E61EF10F015500F02F3C426F5F4C473
:101DA00027F526501C6E1D6A1E6A1F6A2750226E78
:101DB000236A246A256A14501002F3C426F5F4C479
:101DC00027F526501C26000E1D221E221F222750FA
:101DD0002226000E23222422252213501102F3C4AE
:101DE00026F5F4C427F526501C26000E1D221E22BF
:101DF0001F2227502226000E2322242225221EC520
:101E00001FF51DC51EF51CC51DF51C6A13501002DB
:101E1000F3C426F5F4C427F526501C2627501D22AE
:101E2000000E1E22000E1F2214500F02F3C426F5CE
:101E3000F4C427F526501C2627501D22000E1E2212
:101E4000000E1F221EC51FF51DC51EF51CC51DF564
:101E50001C6A13500F02F3C426F5F4C427F526506C
:101E60001C2627501D22000E1E22000E1F22155078
:101E70001002F3C426F5F4C427F526502226275075
:101E80002322000E2422000E252214501102F3C436
:101E900026F5F4C427F52650222627502322000ECB
:101EA0002422000E252215501102F3C426F5F4C495
:101EB00027F52650176E2750186E196A1A6A19C529
:101EC0001AF518C519F517C518F5176A17502226FF
:101ED00018502322195024221A5025221CC517F508
:101EE0001DC518F51EC519F51FC51AF5190E7EEF8B
:101EF0000FF0D8901A32193218321732E82E79EFD3
:101F00000FF01750222618502322195024221A505D
:101F100025221EC51FF51DC51EF51CC51DF51C6A15
:101F2000205021C517F5186A1726000E1822820EB8
:101F30001724266EFF0E1820276EB4EF0FF0D890EE
:101F400022362336243625361FAEA9EF0FF0ABEF2D
:101F50000FF0ACEF0FF02280D8901C361D361E36E5
:101F60001F362606D8A0270624AEB9EF0FF0BBEF28
:101F70000FF09FEF0FF0206A1FAEC1EF0FF0C3EF1D
:101F80000FF0E7EF0FF0FF0E1C14176EFF0E1D147D
:101F9000186EFF0E1E14196E7F0E1F141A6E175046
:101FA000181019101A10D8B4D8EF0FF0DAEF0FF09C
:101FB000DEEF0FF0010E206EE7EF0FF022A0E3EF4F
:101FC0000FF0E5EF0FF0E7EF0FF0DAEF0FF0205032
:101FD000D8B4EDEF0FF0EFEF0FF013EF10F0010EAC
:101FE0002226000E23222422252225A0FAEF0FF01C
:101FF000FCEF0FF013EF10F022C517F523C518F50D
:1020000024C519F525C51AF51A341A3219321832B1
:10201000173217C522F518C523F519C524F51AC5B9
:1020200025F5264A272A27BE1EEF10F0275008E183
:102030002628D8A01EEF10F020EF10F02AEF10F0A5
:10204000000E226E000E236E800E246E7F0E256E13
:1020500057EF10F027BE37EF10F0275006E12604A7
:10206000D8B035EF10F037EF10F042EF10F0000E5F
:10207000226E000E236E000E246E000E256E1B6A6B
:1020800057EF10F026C521F5FF0E2216FF0E23167E
:102090007F0E2416000E251621A051EF10F053EFED
:1020A00010F054EF10F0248ED8902130256E1B5084
:1020B000251222C50FF523C510F524C511F525C538
:1020C00012F5120005018A51800B976F8A518A25FB
:1020D0009E6F89AF6EEF10F070EF10F071EF10F09F
:1020E0009E819E51D8B477EF10F079EF10F08DEF0C
:1020F00010F09E29D8A47FEF10F081EF10F089EF47
:1021000010F0000E876F000E886F000E896F000EB2
:102110008A6F898F8A6B95EF10F0000E876F000E23
:10212000886F000E896F000E8A6F8E51800B971B8F
:102130008E518E259F6F8DAFA0EF10F0A2EF10F0A3
:10214000A3EF10F09F819F51D8B4A9EF10F0ABEF2F
:1021500010F0BFEF10F09F29D8A4B1EF10F0B3EF4B
:1021600010F0BBEF10F0000E8B6F000E8C6F000EA6
:102170008D6F000E8E6F8D8F8E6BC7EF10F0000E7F
:102180008B6F000E8C6F000E8D6F000E8E6F8B515B
:102190008C118D118E11D8A4D0EF10F0D2EF10F069
:1021A000EAEF10F0000E876F000E886F000E896F47
:1021B000000E8A6F800E89137F0E8A1397518A133F
:1021C00087C587F588C588F589C589F58AC58AF5E3
:1021D0002AEF12F09E51D8A4F0EF10F0F2EF10F0B9
:1021E000FCEF10F0000E876F000E886F000E896FF5
:1021F000000E8A6F2AEF12F09F519EC58FF5906BEB
:102200008F5F000E905B7F0E8F25986F000E9021E0
:10221000996F87C593F588C594F589C595F58AC5E5
:1022200096F5000E876F000E886F000E896F000E06
:102230008A6F000E9A6F000E9B6F000E9C6F000E4F
:102240009D6F9F6B5CEF11F09F51D8B42AEF11F096
:102250002CEF11F043EF11F0D89093379437953766
:102260009637D8908737883789378A379DAF3BEFC5
:1022700011F03DEF11F03EEF11F08781D8909A37C1
:102280009B379C379D378B51935D8C5194598D5161
:1022900095598E519659D8A050EF11F052EF11F088
:1022A0005BEF11F09D8D8B51935F8C51945B8D5141
:1022B000955B8E51965B9F2B190E9F6562EF11F017
:1022C00064EF11F024EF11F09351941195119611D0
:1022D000D8B46DEF11F06FEF11F087EF11F09A8124
:1022E00087EF11F0D8908737883789378A379DAFC5
:1022F0007CEF11F07EEF11F07FEF11F08781D89025
:102300009A379B379C379D379807D8A0990789AF94
:102310008CEF11F08EEF11F072EF11F09F6B9DAF0B
:1023200094EF11F096EF11F0BAEF11F0FF0E9A153D
:102330008F6FFF0E9B15906FFF0E9C15916F7F0E98
:102340009D15926F8F51901191119211D8B4ABEFEE
:1023500011F0ADEF11F0B1EF11F0010E9F6FBAEF78
:1023600011F087A1B6EF11F0B8EF11F0BAEF11F04C
:10237000ADEF11F09F51D8B4C0EF11F0C2EF11F0E2
:10238000E6EF11F0010E8727000E882389238A23A8
:102390008AA1CDEF11F0CFEF11F0E6EF11F087C574
:1023A0008FF588C590F589C591F58AC592F5923566
:1023B0009233913390338F338FC587F590C588F56D
:1023C00091C589F592C58AF5984B992B99BFF1EF84
:1023D00011F0995108E19829D8A0F1EF11F0F3EF2D
:1023E00011F0FEEF11F0000E996F9869000E876FE3
:1023F000000E886F000E896F000E8A6F99BF0BEF79
:1024000012F0995106E19805D8B009EF12F00BEFE0
:1024100012F018EF12F0000E996F000E986F000E78
:10242000876F000E886F000E896F000E8A6F976BA2
:1024300098C59EF59EA11FEF12F021EF12F024EF38
:1024400012F0898F25EF12F0899FD8909E318A6F04
:10245000DEEF10F012002B50800B386E2B502B2427
:102460003F6E2AAE36EF12F038EF12F039EF12F06D
:102470003F803F50D8B43FEF12F041EF12F055EFDC
:1024800012F03F28D8A447EF12F049EF12F051EFB5
:1024900012F0000E286E000E296E000E2A6E000E3D
:1024A0002B6E2A8E2B6A5DEF12F0000E286E000E46
:1024B000296E000E2A6E000E2B6E2F50800B381ADC
:1024C0002F502F24406E2EAE68EF12F06AEF12F0FC
:1024D0006BEF12F040804050D8B471EF12F073EF00
:1024E00012F087EF12F04028D8A479EF12F07BEFBA
:1024F00012F083EF12F0000E2C6E000E2D6E000E07
:102500002E6E000E2F6E2E8E2F6A8FEF12F0000EA1
:102510002C6E000E2D6E000E2E6E000E2F6E2C50A7
:102520002D102E102F10D8A498EF12F09AEF12F061
:10253000B2EF12F0000E286E000E296E000E2A6E09
:10254000000E2B6E800E2A127F0E2B1238502B128B
:1025500028C528F529C529F52AC52AF52BC52BF547
:10256000F2EF13F03F50D8A4B8EF12F0BAEF12F028
:10257000C4EF12F0000E286E000E296E000E2A6EB7
:10258000000E2B6EF2EF13F040503FC530F5316A6C
:10259000305E000E315A7F0E3024396E000E31202D
:1025A0003A6E28C534F529C535F52AC536F52BC54B
:1025B00037F5000E286E000E296E000E2A6E000EF2
:1025C0002B6E000E3B6E000E3C6E000E3D6E000E3C
:1025D0003E6E406A24EF13F04050D8B4F2EF12F090
:1025E000F4EF12F00BEF13F0D89034363536363660
:1025F0003736D890283629362A362B363EAE03EFAA
:1026000013F005EF13F006EF13F02880D8903B3657
:102610003C363D363E362C50345C2D5035582E50CD
:1026200036582F503758D8A018EF13F01AEF13F080
:1026300023EF13F03E8C2C50345E2D50355A2E5023
:10264000365A2F50375A402A190E40642AEF13F099
:102650002CEF13F0ECEF12F0345035103610371029
:10266000D8B435EF13F037EF13F04FEF13F03B8092
:102670004FEF13F0D890283629362A362B363EAE47
:1026800044EF13F046EF13F047EF13F02880D89093
:102690003B363C363D363E363906D8A03A062AAEA1
:1026A00054EF13F056EF13F03AEF13F0406A3EAEDA
:1026B0005CEF13F05EEF13F082EF13F0FF0E3B14AC
:1026C000306EFF0E3C14316EFF0E3D14326E7F0EE5
:1026D0003E14336E3050311032103310D8B473EFD3
:1026E00013F075EF13F079EF13F0010E406E82EFE7
:1026F00013F028A07EEF13F080EF13F082EF13F0B9
:1027000075EF13F04050D8B488EF13F08AEF13F050
:10271000AEEF13F0010E2826000E29222A222B22CA
:102720002BA095EF13F097EF13F0AEEF13F028C541
:1027300030F529C531F52AC532F52BC533F53334CB
:10274000333232323132303230C528F531C529F5D5
:1027500032C52AF533C52BF5394A3A2A3ABEB9EFC4
:1027600013F03A5008E13928D8A0B9EF13F0BBEFC5
:1027700013F0C6EF13F0000E3A6E3968000E286EA3
:10278000000E296E000E2A6E000E2B6E3ABED3EF9D
:1027900013F03A5006E13904D8B0D1EF13F0D3EF7B
:1027A00013F0E0EF13F0000E3A6E000E396E000EDB
:1027B000286E000E296E000E2A6E000E2B6E386AEF
:1027C00039C53FF53FA0E7EF13F0E9EF13F0ECEF69
:1027D00013F02A8EEDEF13F02A9ED8903F302B6E27
:1027E000A6EF12F0120080C6B1F581C6B2F582C61E
:1027F000B3F583C6B4F59FC5B1F5A0C5B2F5A1C5C3
:10280000B3F5A2C5B4F5B1C5A3F5B2C5A4F5B3C57A
:10281000A5F5B4C5A6F5180E14EF14F00501D8906F
:10282000A633A533A433A333E82E0EEF14F0A3513F
:10283000AF6FB06BB0BF26EF14F0B05109E1960E48
:10284000AF5DD8A026EF14F028EF14F032EF14F0AB
:102850009FC59FF5A0C5A0F5A1C5A1F5A2C5A2F58C
:1028600064EF15F0B4BF37EF14F03AEF14F0010E37
:102870003BEF14F0000EB96FB951D8B442EF14F029
:1028800044EF14F056EF14F09FC560F5A0C561F554
:10289000A1C562F5A2C563F5EDEC29F060C59FF511
:1028A00061C5A0F562C5A1F563C5A2F50501B0BF7C
:1028B00065EF14F0B05107E17E0EAF5DD8B063EF65
:1028C00014F065EF14F06FEF14F0000E9F6F000E20
:1028D000A06F000EA16F000EA26F64EF15F0000E46
:1028E0008B6F000E8C6F000E8D6F4B0E8E6F9FC521
:1028F00087F5A0C588F5A1C589F5A2C58AF5DFECE5
:1029000009F087C5B5F588C5B6F589C5B7F58AC597
:10291000B8F5000E05018B6F000E8C6F000E8D6FE9
:10292000CB0E8E6FB5C587F5B6C588F5B7C589F5E9
:10293000B8C58AF5DFEC09F087C5A7F588C5A8F505
:1029400089C5A9F58AC5AAF5A7C597F5A8C598F5BB
:10295000A9C599F5AAC59AF59FC59BF5A0C59CF593
:10296000A1C59DF5A2C59EF5E6EC28F097C5BAF580
:1029700098C5BBF599C5BCF59AC5BDF5000E050116
:10298000AB6F000EAC6F000EAD6F000EAE6F000EA1
:102990006E6F000E6F6F000E706F3F0E716FBAC5D5
:1029A00072F5BBC573F5BCC574F5BDC575F5D2EC44
:1029B0001EF00501D8B0DFEF14F0E1EF14F0EBEFFB
:1029C00014F0000EAB6F000EAC6F800EAD6FBF0E3B
:1029D000AE6F0DEF15F0000E6E6F000E6F6F000EF4
:1029E000706FBF0E716FBAC572F5BBC573F5BCC50C
:1029F00074F5BDC575F5D2EC1EF00501D8A003EF46
:102A000015F005EF15F00DEF15F0000EAB6F000E91
:102A1000AC6F800EAD6F3F0EAE6F9FC58BF5A0C53E
:102A20008CF5A1C58DF5A2C58EF5BAC587F5BBC5D8
:102A300088F5BCC589F5BDC58AF5DFEC09F087C509
:102A4000B5F588C5B6F589C5B7F58AC5B8F5B5C574
:102A500087F5B6C588F5B7C589F5B8C58AF5ABC59C
:102A60008BF5ACC58CF5ADC58DF5AEC58EF5DFEC3F
:102A700009F087C5BAF588C5BBF589C5BCF58AC517
:102A8000BDF50501B951D8B448EF15F04AEF15F07E
:102A90005CEF15F0BAC560F5BBC561F5BCC562F564
:102AA000BDC563F5EDEC29F060C5BAF561C5BBF5B0
:102AB00062C5BCF563C5BDF5BAC59FF5BBC5A0F53C
:102AC000BCC5A1F5BDC5A2F51200D0EC29F0D8C552
:102AD000E4F5D9C5E5F5DAC5E6F5DBC5E7F5E4C506
:102AE0009FF5E5C5A0F5E6C5A1F5E7C5A2F5F3ECB0
:102AF00013F09FC5BEF5A0C5BFF5A1C5C0F5A2C521
:102B0000C1F54EEC1EF0BEC594F6BFC595F6C0C526
:102B100096F6C1C597F694C690F695C691F696C6F8
:102B200092F697C693F606019451845D95518559A6
:102B30009651865997518759D8A0A1EF15F0A3EF68
:102B400015F0EFEF15F09451951196119711D8B437
:102B5000ACEF15F0AEEF15F0EFEF15F09051050169
:102B6000EC5D060191510501ED59060192510501F7
:102B7000EE59060193510501EF59D8A0C2EF15F0A7
:102B8000C4EF15F0EFEF15F0EF51EE110BE1110E60
:102B9000EC5D270EED59D8A0D0EF15F0D2EF15F06F
:102BA000EFEF15F0000EF36F000EF26FFD6B0601F4
:102BB0009451845F9551855B9651865B9751875BF5
:102BC00090510501EC5F060191510501ED5B060195
:102BD00092510501EE5B060193510501EF5B050182
:102BE000EC510601905D0501ED5106019159050179
:102BF000EE51060192590501EF5106019359D8B0E3
:102C000004EF16F006EF16F015EF16F00501EF5180
:102C1000EE1109E1110EEC5D270EED59D8B013EF5E
:102C200016F015EF16F029EF16F00601C605D8A428
:102C30001CEF16F01EEF16F025EF16F0C66B0AEC2F
:102C400029F00601C78338EF16F00601C79338EF65
:102C500016F00601C651D8A430EF16F032EF16F088
:102C600021EF16F0010EC66F84EC27F025EF16F069
:102C700088C660F589C661F58AC662F58BC663F5BC
:102C8000000E8AEC18F060C58BF561C58CF562C545
:102C90008DF563C58EF584C660F585C661F586C67B
:102CA00062F587C663F5000E8AEC18F060C587F5FB
:102CB00061C588F562C589F563C58AF562EC10F0D7
:102CC00087C56EF588C56FF589C570F58AC571F53C
:102CD000000E0501726F000E736FC80E746F420E06
:102CE000756F3BEC0CF06EC5E0F56FC5E1F570C596
:102CF000E2F571C5E3F5000E0501726F000E736F0A
:102D0000C80E746F420E756FE0C56EF5E1C56FF5C4
:102D1000E2C570F5E3C571F53BEC0CF06EC5BEF590
:102D20006FC5BFF570C5C0F571C5C1F54EEC1EF09D
:102D3000BEC5E8F5BFC5E9F5E8C59EF6E9C59FF64D
:102D40001200040E0501FF6F140E65EC2CF0340E1A
:102D50000501CC6FF10EE82EFED7CC2FFCD700D0AA
:102D600096EC2CF0F7EC2BF00009D8B4BAEF16F083
:102D7000BCEF16F0B2EF16F070EC2BF060C5D2F598
:102D800061C5D3F56F0E0501726F120E736F030EDE
:102D9000746F400E756FD2C560F5D3C561F5000E36
:102DA00061BFFF0E626F636F010E8AEC18F060C5A1
:102DB0006EF561C56FF562C570F563C571F53BECE5
:102DC0000CF06EC587F56FC588F570C589F571C5BE
:102DD0008AF5000E05018B6FF00E8C6F7F0E8D6FE4
:102DE000450E8E6F62EC10F087C5CEF588C5CFF525
:102DF00089C5D0F58AC5D1F5CEC56EF5CFC56FF5BD
:102E0000D0C570F5D1C571F5000E0501726F000EC9
:102E1000736F7A0E746F440E756F3BEC0CF06EC5D9
:102E2000D4F56FC5D5F570C5D6F571C5D7F50501D3
:102E3000FF51F025CC6F000EF121CD6FCCC560F5B0
:102E4000CDC561F5626B636B000E8AEC18F060C54E
:102E50006EF561C56FF562C570F563C571F5D4C5D2
:102E600072F5D5C573F5D6C574F5D7C575F5D2EC31
:102E70001EF00501D8B03FEF17F041EF17F06CEFEF
:102E800017F0D4C597F5D5C598F5D6C599F5D7C52A
:102E90009AF5FF51F025CC6F000EF121CD6FCCC516
:102EA00060F5CDC561F5626B636B000E8AEC18F0BE
:102EB00060C59BF561C59CF562C59DF563C59EF532
:102EC000E6EC28F097C5D4F598C5D5F599C5D6F5A3
:102ED0009AC5D7F574EF17F0000ED46F000ED56FBA
:102EE000000ED66F000ED76FD4C587F5D5C588F50F
:102EF000D6C589F5D7C58AF5BCEC1DF087C59FF509
:102F000088C5A0F589C5A1F58AC5A2F5F3EC13F033
:102F10009FC5BEF5A0C5BFF5A1C5C0F5A2C5C1F549
:102F20004EEC1EF0BEC59CF6BFC59DF69CC660F576
:102F30009DC661F50501626B636B000E8AEC18F0AB
:102F400060C5C8F561C5C9F562C5CAF563C5CBF5ED
:102F50001200FAC45CF5FBC45DF5A7A0B2EF17F050
:102F6000B4EF17F0CBEF17F0B7A0B9EF17F0BBEF46
:102F700017F0CBEF17F002D8C9EF17F005000601E4
:102F8000FA6EE751FD6EE851FE6EF850FF6EFA5092
:102F9000120085EF18F0A7A6D0EF17F0D2EF17F0C8
:102FA000E9EF17F0B7A6D7EF17F0D9EF17F0E9EF71
:102FB00017F002D8E7EF17F005000601FA6EE951A5
:102FC000FD6EEA51FE6EF850FF6EFA50120085EF6A
:102FD00018F0A7A2EEEF17F0F0EF17F007EF18F0D8
:102FE000B7A2F5EF17F0F7EF17F007EF18F002D8D8
:102FF00005EF18F005000601FA6EE551FD6EE65189
:10300000FE6EF850FF6EFA50120085EF18F0A1A87E
:103010000CEF18F00EEF18F019EF18F0B1A813EF3D
:1030200018F015EF18F019EF18F0AEEC26F085EF58
:1030300018F09FA01EEF18F020EF18F02BEF18F0FB
:10304000AFA025EF18F027EF18F02BEF18F03BECAE
:103050002CF085EF18F0A9A630EF18F032EF18F039
:103060003DEF18F0B9A637EF18F039EF18F03DEF43
:1030700018F08FEC2AF085EF18F0A4A042EF18F0BA
:1030800044EF18F04FEF18F0B4A049EF18F04BEFF1
:1030900018F04FEF18F035EC2CF085EF18F0A8A0E1
:1030A00054EF18F056EF18F061EF18F0B8A05BEF8E
:1030B00018F05DEF18F061EF18F0BCEC2BF085EF25
:1030C00018F09FA466EF18F068EF18F073EF18F08F
:1030D000AFA46DEF18F06FEF18F073EF18F0BCECC1
:1030E0002CF085EF18F0A0A078EF18F07AEF18F028
:1030F00085EF18F0B0A07FEF18F081EF18F085EFA2
:1031000018F0BAEC2CF085EF18F05DC5FBF45CC547
:10311000FAF411000501686F05016851D8B493EF06
:1031200018F095EF18F0B7EF18F063BF9CEF18F0A8
:103130009AEF18F0B7EF18F060C564F561C565F552
:1031400062C566F563C567F5641F651F661F671F67
:10315000642B000E65236623672364C56AF565C585
:103160006BF566C56CF567C56DF5BFEF18F060C50A
:103170006AF561C56BF562C56CF563C56DF56051A7
:10318000611162116311D8A4C8EF18F0CAEF18F0EA
:10319000D4EF18F0000E606F000E616F000E626FCA
:1031A000000E636F65EF19F0960E696FDEEF18F091
:1031B000692BD8906D336C336B336A33000E6A150C
:1031C000646F000E6B15656F000E6C15666FFE0E5A
:1031D0006D15676F6451651166116711D8A4F3EF1F
:1031E00018F0F5EF18F0D8EF18F003EF19F0692B8D
:1031F000010E6A27000E6B236C236D23D8906D336C
:103200006C336B336A33000E6A15646F000E6B15F6
:10321000656F000E6C15666FFF0E6D15676F64515C
:10322000651166116711D8A418EF19F01AEF19F09B
:10323000F7EF18F022EF19F06907D8906A376B376B
:103240006C376D376CBF27EF19F029EF19F031EFAC
:1032500019F0020E69612FEF19F031EF19F01CEF30
:1032600019F069B136EF19F038EF19F039EF19F0AC
:103270006C9FD890693369C564F5656B666B676B45
:1032800064C567F5666B656B646B64516A13655161
:103290006B1366516C1367516D136851D8B453EFBB
:1032A00019F055EF19F05DEF19F063BF5CEF19F0FD
:1032B0005AEF19F05DEF19F06D8F6AC560F56BC5B7
:1032C00061F56CC562F56DC563F51200096E0950B4
:1032D000D8B46DEF19F06FEF19F091EF19F004BE4B
:1032E00076EF19F074EF19F091EF19F001C505F5BB
:1032F00002C506F503C507F504C508F5051E061E3B
:10330000071E081E052A000E06220722082205C5F0
:103310000BF506C50CF507C50DF508C50EF599EFBB
:1033200019F001C50BF502C50CF503C50DF504C573
:103330000EF50150021003100410D8A4A2EF19F0EA
:10334000A4EF19F0AEEF19F0000E016E000E026E40
:10335000000E036E000E046E3FEF1AF0960E0A6E1A
:10336000B8EF19F00A2AD8900E320D320C320B3217
:10337000000E0B14056E000E0C14066E000E0D14DC
:10338000076EFE0E0E14086E05500610071008108A
:10339000D8A4CDEF19F0CFEF19F0B2EF19F0DDEFAF
:1033A00019F00A2A010E0B26000E0C220D220E2205
:1033B000D8900E320D320C320B32000E0B14056E0B
:1033C000000E0C14066E000E0D14076EFF0E0E1488
:1033D000086E0550061007100810D8A4F2EF19F077
:1033E000F4EF19F0D1EF19F0FCEF19F00A06D890BC
:1033F0000B360C360D360E360DBE01EF1AF003EF0C
:103400001AF00BEF1AF0020E0A6009EF1AF00BEF38
:103410001AF0F6EF19F00AB010EF1AF012EF1AF0E6
:1034200013EF1AF00D9ED8900A320AC505F5066A08
:10343000076A086A05C508F5076A066A056A05503D
:103440000B1206500C1207500D1208500E120950A4
:10345000D8B42DEF1AF02FEF1AF037EF1AF004BEA0
:1034600036EF1AF034EF1AF037EF1AF00E8E0BC564
:1034700001F50CC502F50DC503F50EC504F51200E6
:1034800059EC20F0A0C5BEF5A1C5BFF5A2C5C0F599
:10349000A3C5C1F54EEC1EF0BEC5F0F5BFC5F1F5F4
:1034A000000E0501EC6F000EED6F000EEE6F000ECA
:1034B000EF6F000E0601886F000E896F000E8A6F95
:1034C000000E8B6F000E846F000E856F000E866FEE
:1034D000000E876F000E8C6F000E8D6F000E8E6FCA
:1034E000000E8F6F140E0501686F000E696F380EA5
:1034F0006A6FF0C56BF5F1C56CF5BAEC25F0020EFC
:103500000501C96F040EC86FBA0EE82EFED7C82F8A
:10351000FCD7C92FFAD70000000E0501686F000E16
:10352000696F380E6A6F000E6B6F000E6C6F000EC5
:103530006D6F000E6E6FD8EC1FF0020E0501C96FA3
:10354000040EC86FBA0EE82EFED7C82FFCD7C92FBD
:10355000FAD70000050E0501686F000E696F380E7E
:103560006A6F000E6B6F000E6C6F000E6D6F000EB9
:103570006E6FD8EC1FF0020E0501C96F040EC86F04
:10358000BA0EE82EFED7C82FFCD7C92FFAD70000F5
:103590000A0E0501686F000E696F380E6A6F000E23
:1035A0006B6F000E6C6F000E6D6F000E6E6FD8ECBF
:1035B0001FF0020E0501C96F040EC86FBA0EE82E87
:1035C000FED7C82FFCD7C92FFAD70000190E050166
:1035D000686F000E696F380E6A6F000E6B6F000E19
:1035E0006C6F000E6D6F000E6E6FD8EC1FF0020E48
:1035F0000501C96F040EC86FBA0EE82EFED7C82F9A
:10360000FCD7C92FFAD7000012000C0E65EC2CF085
:10361000340E0501A46FF10EE82EFED7A42FFCD7BF
:1036200000D096EC2CF0F7EC2BF00009D8B41BEF8F
:103630001BF01DEF1BF013EF1BF070EC2BF060C5BF
:10364000B1F561C5B2F56F0E0501726F120E736FA1
:10365000030E746F400E756FB1C560F5B2C561F5AC
:10366000000E61BFFF0E626F636F010E8AEC18F0EF
:1036700060C56EF561C56FF562C570F563C571F51E
:103680003BEC0CF06EC587F56FC588F570C589F504
:1036900071C58AF5000E05018B6FF00E8C6F7F0EE1
:1036A0008D6F450E8E6F62EC10F087C5A5F588C54D
:1036B000A6F589C5A7F58AC5A8F5000E0501726FA4
:1036C000600E736FD60E746F440E756FA5C56EF5E0
:1036D000A6C56FF5A7C570F5A8C571F53BEC0CF054
:1036E0006EC587F56FC588F570C589F571C58AF512
:1036F000000E05018B6F800E8C6F490E8D6F440E8E
:103700008E6F62EC10F087C5A9F588C5AAF589C54A
:10371000ABF58AC5ACF5000E0501726F000E736F34
:103720007A0E746F440E756FA9C56EF5AAC56FF554
:10373000ABC570F5ACC571F53BEC0CF06EC587F50B
:103740006FC588F570C589F571C58AF5000E05014C
:103750008B6F000E8C6FA00E8D6FC10E8E6FDFEC25
:1037600009F087C5ADF588C5AEF589C5AFF58AC541
:10377000B0F5ADC5A0F5AEC5A1F5AFC5A2F5B0C514
:10378000A3F5120020EC2BF05FEC2BF090EC2CF06A
:1037900095EC28F09F80A480A880A20E0501606FA0
:1037A0004E0E616F60EC2CF0B80E0501606F540E88
:1037B000616F5BEC2CF08A0E0501606F590E616F32
:1037C00056EC2CF00601C905D8A4E9EF1BF0EBEF8D
:1037D0001BF06BEF1CF0C96B6BEC28F0C0B0F3EF83
:1037E0001BF0F6EF1BF0010EF7EF1BF0000EFF0AC7
:1037F0000501EB6FC050EB19FE0BEB19C06EF351D6
:1038000007E1050EF25DD8B008EF1CF00AEF1CF0DE
:1038100016EF1CF0FD05D8A410EF1CF012EF1CF001
:1038200016EF1CF037EC2BF068EF1CF0F35107E1BA
:10383000050EF25DD8B01FEF1CF021EF1CF02BEF4E
:103840001CF0FD51D8A427EF1CF029EF1CF02BEF42
:103850001CF012EF1CF0F35109E1050EF25DD8A047
:1038600034EF1CF036EF1CF049EF1CF0FD51D8A4EA
:103870003CEF1CF03EEF1CF049EF1CF037EC2BF056
:10388000000E0501F36F000EF26F010EFD6F68EF81
:103890001CF0F35109E1050EF25DD8A052EF1CF0C7
:1038A00054EF1CF068EF1CF0FD05D8A45AEF1CF093
:1038B0005CEF1CF068EF1CF037EC2BF0000E0501FC
:1038C000F36F000EF26FFD6B11EC28F068EF1CF047
:1038D0000601984B992B92EC29F01BEC07F0E2EFD4
:1038E0001BF00DEF00F00501F851020D000EF3245E
:1038F000D96E060EF420DA6EDE6ADD6A0201D8A700
:1039000084EF1CF086EF1CF0A7EF1CF00501F851C6
:10391000020D000EF324D96E060EF420DA6E0601B5
:10392000DF82AE51AF11D8B498EF1CF09AEF1CF0C3
:10393000A7EF1CF002D8A7EF1CF00500FA6EAE51FD
:10394000FD6EAF51FE6EF850FF6EFA50120002018C
:10395000D8A3ADEF1CF0AFEF1CF0D0EF1CF00501C9
:10396000F851020D000EF324D96E060EF420DA6E23
:103970000601DF84AC51AD11D8B4C1EF1CF0C3EF28
:103980001CF0D0EF1CF002D8D0EF1CF00500FA6E4E
:10399000AC51FD6EAD51FE6EF850FF6EFA50120044
:1039A0000201D8ADD6EF1CF0D8EF1CF0F9EF1CF0F7
:1039B0000501F851020D000EF324D96E060EF42015
:1039C000DA6E0601DF80AA51AB11D8B4EAEF1CF021
:1039D000ECEF1CF0F9EF1CF002D8F9EF1CF0050039
:1039E000FA6EAA51FD6EAB51FE6EF850FF6EFA50A2
:1039F0001200C7C201F50501F8293F0B026EF7510D
:103A00000218D8A406EF1DF008EF1DF00AEF1DF014
:103A100019EF1DF0000EF825D96EDA6A070EDA22CA
:103A200001C5DFF402C5F8F5F62B0601FB6B010EAC
:103A3000C86F1200ECEC2BF00009D8A422EF1DF0A7
:103A400024EF1DF01AEF1DF00F0E0501666F000E3A
:103A5000676F380E686FB2EC29F066C5A0F667C5CF
:103A6000A1F61A0E0501CA6FF80EE82EFED7CA2F6E
:103A7000FCD700000601A051A111D8B442EF1DF0FF
:103A800044EF1DF071EF1DF0010EA025A06F000E98
:103A9000A121A16F0F0E0501686F000E696F380E2E
:103AA0006A6FA0C66BF5A1C66CF5BAEC25F0FCEC0C
:103AB00023F0030E05016E6FE80E6D6F000E706F40
:103AC000640E6F6FF6EC22F0030E05016E6FE80EC8
:103AD0006D6F000E706F640E6F6FF6EC22F0BBEF2F
:103AE0001DF0000EA16F010EA06F0F0E0501686F93
:103AF000000E696F380E6A6F000E6C6F010E6B6FEF
:103B0000BAEC25F040EC1AF0010E05016E6F2C0E98
:103B10006D6F000E706F640E6F6FF6EC22F0010E89
:103B200005016E6F2C0E6D6F000E706F640E6F6F5F
:103B3000F6EC22F0010E05016E6F2C0E6D6F000E7B
:103B4000706F640E6F6FF6EC22F0010E05016E6F60
:103B50002C0E6D6F000E706F640E6F6FF6EC22F01E
:103B6000010E05016E6F2C0E6D6F000E706F640EEE
:103B70006F6FF6EC22F0120087C56EF588C56FF501
:103B800089C570F58AC571F5000E0501726F000ECA
:103B9000736F800E746F400E756FD2EC1EF00501CE
:103BA000D8B0D5EF1DF0D7EF1DF0E1EF1DF0000EFE
:103BB000876F000E886F000E896F000E8A6F4DEFC1
:103BC0001EF0000E6E6F000E6F6FE40E706F420EEF
:103BD000716F87C572F588C573F589C574F58AC597
:103BE00075F5D2EC1EF00501D8A0F9EF1DF0FBEF42
:103BF0001DF005EF1EF0000E8B6F000E8C6F8A0E0D
:103C00008D6F410E8E6F33EF1EF0000E6E6F000E43
:103C10006F6FE20E706F430E716F87C572F588C5C6
:103C200073F589C574F58AC575F5D2EC1EF00501EA
:103C3000D8A01DEF1EF01FEF1EF029EF1EF0140E8E
:103C40008B6FAE0E8C6FB70E8D6F400E8E6F33EF95
:103C50001EF0000E876F100E886F220E896F450EC2
:103C60008A6F4DEF1EF087C56EF588C56FF589C563
:103C700070F58AC571F58BC572F58CC573F58DC568
:103C800074F58EC575F53BEC0CF06EC587F56FC508
:103C900088F570C589F571C58AF512000501C03532
:103CA000C135C76FC751D8A458EF1EF05AEF1EF0A8
:103CB00064EF1EF0000EBE6F000EBF6F000EC06FEF
:103CC000000EC16FD1EF1EF0BEC5C2F5BFC5C3F572
:103CD000C0C5C4F5C1C5C5F5200E74EF1EF0D8905F
:103CE000C533C433C333C233E82E6FEF1EF0C25165
:103CF000C66FC08FFF0EBE17FF0EBF17FF0EC01797
:103D0000000EC117960EC75FC7BF8BEF1EF089EF7D
:103D10001EF0A1EF1EF0C751800A970FD8B093EFA5
:103D20001EF095EF1EF097EF1EF05AEF1EF0D890A0
:103D3000C133C033BF33BE33C73F97EF1EF0B9EF77
:103D40001EF01F0EC765A7EF1EF0A9EF1EF0B1EF22
:103D50001EF05AEF1EF0D890BE37BF37C037C137BC
:103D6000C707C751D8A4B7EF1EF0B9EF1EF0ABEFED
:103D70001EF0C651D8B4BFEF1EF0C1EF1EF0C9EF60
:103D80001EF0C11FC01FBF1FBE6D000EBF23C0238A
:103D9000C123BEC5BEF5BFC5BFF5C0C5C0F5C1C511
:103DA000C1F51200000E05016E15766F000E6F153D
:103DB000776F800E7015786F7F0E7115796F765161
:103DC000771178117911D8A4E8EF1EF0EAEF1EF010
:103DD000F2EF1EF0000E6E6F000E6F6F000E706F30
:103DE000000E716F000E7215766F000E7315776FEF
:103DF000800E7415786F7F0E7515796F7651771177
:103E000078117911D8A407EF1FF009EF1FF011EF17
:103E10001FF0000E726F000E736F000E746F000EB5
:103E2000756F71AF16EF1FF018EF1FF021EF1FF045
:103E30006E6D6F1FD8B06F2B701FD8B0702B800EB7
:103E4000715775AF26EF1FF028EF1FF031EF1FF00D
:103E5000726D731FD8B0732B741FD8B0742B800E83
:103E60007557000E6E1B000E6F1B000E701B800E30
:103E7000711B000E721B000E731B000E741B800E54
:103E8000751B72516E5D73516F5974517059755134
:103E90007159D8B04EEF1FF050EF1FF053EF1FF0E5
:103EA000D89054EF1FF0D880120052345334596E1A
:103EB0005950D8A45EEF1FF060EF1FF06AEF1FF0BB
:103EC000000E506E000E516E000E526E000E536EBC
:103ED000D7EF1FF050C554F551C555F552C556F5ED
:103EE00053C557F5200E7AEF1FF0D890573256324F
:103EF00055325432E82E75EF1FF05450586E528EE2
:103F0000FF0E5016FF0E5116FF0E5216000E5316DE
:103F1000960E595E59BE91EF1FF08FEF1FF0A7EF7D
:103F20001FF05950800A970FD8B099EF1FF09BEF00
:103F30001FF09DEF1FF060EF1FF0D8905332523208
:103F400051325032593E9DEF1FF0BFEF1FF01F0E50
:103F50005964ADEF1FF0AFEF1FF0B7EF1FF060EF48
:103F60001FF0D890503651365236533659065950B4
:103F7000D8A4BDEF1FF0BFEF1FF0B1EF1FF05850F6
:103F8000D8B4C5EF1FF0C7EF1FF0CFEF1FF0531EDF
:103F9000521E511E506C000E51225222532250C507
:103FA00050F551C551F552C552F553C553F51200A0
:103FB000AA0E0501616F550E606F2FEC2CF068C5DD
:103FC00060F569C561F56AC562F56EC563F5E3EC38
:103FD00027F093EC2CF0ECEC2BF00009D8A4F3EFD5
:103FE0001FF0F5EF1FF0EBEF1FF0AA0E0501616F58
:103FF000550E606F2FEC2CF0010E05016825606FE7
:10400000000E6921616F000E6A21626F6DC563F554
:10401000E3EC27F093EC2CF0ECEC2BF00009D8A4A7
:1040200014EF20F016EF20F00CEF20F0AA0E05019F
:10403000616F550E606F2FEC2CF0020E05016825A4
:10404000606F000E6921616F000E6A21626F6CC59E
:1040500063F5E3EC27F093EC2CF0ECEC2BF000098B
:10406000D8A435EF20F037EF20F02DEF20F0AA0E86
:104070000501616F550E606F2FEC2CF0030E0501EA
:104080006825606F000E6921616F000E6A21626F02
:104090006BC563F5E3EC27F093EC2CF0ECEC2BF024
:1040A0000009D8A456EF20F058EF20F04EEF20F092
:1040B0001200140E65EC2CF0340E0501A46FF10E05
:1040C000E82EFED7A42FFCD700D096EC2CF0F7EC0E
:1040D0002BF00009D8B46FEF20F071EF20F067EFFC
:1040E00020F070EC2BF060C5ADF561C5AEF56F0E3C
:1040F0000501726F120E736F030E746F400E756FB1
:10410000ADC560F5AEC561F5000E61BFFF0E626F13
:10411000636F010E8AEC18F060C56EF561C56FF52E
:1041200062C570F563C571F53BEC0CF06EC587F5A3
:104130006FC588F570C589F571C58AF5000E050152
:104140008B6FF00E8C6F7F0E8D6F450E8E6F62EC55
:1041500010F087C5A5F588C5A6F589C5A7F58AC558
:10416000A8F5A5C56EF5A6C56FF5A7C570F5A8C5D8
:1041700071F5000E0501726F000E736F7A0E746F89
:10418000440E756F3BEC0CF06EC5A9F56FC5AAF532
:1041900070C5ABF571C5ACF5A9C5A0F5AAC5A1F56B
:1041A000ABC5A2F5ACC5A3F51200140E86EC2CF03D
:1041B000340E456EF20EE82EFED7452EFCD7A8EC45
:1041C0002CF002EC2CF00009D8B4E9EF20F0EBEF72
:1041D00020F0E1EF20F00DEC2CF001C54EF502C50A
:1041E0004FF56F0E136E120E146E030E156E400E09
:1041F000166E4EC501F54FC502F5000E02BEFF0E4C
:10420000036E046E010E66EC19F001C50FF502C5D0
:1042100010F503C511F504C512F54FEC0EF00FC5EE
:1042200028F510C529F511C52AF512C52BF5000E84
:104230002C6EF00E2D6E7F0E2E6E450E2F6E2BEC1B
:1042400012F028C546F529C547F52AC548F52BC5FE
:1042500049F546C50FF547C510F548C511F549C5DF
:1042600012F5000E136E000E146E7A0E156E440ECB
:10427000166E4FEC0EF00FC54AF510C54BF511C583
:104280004CF512C54DF54AC541F54BC542F54CC537
:1042900043F54DC544F5120066C560F567C561F587
:1042A00068C562F5A8EC2AF005017E6F010E66254F
:1042B000606F000E6721616F000E6821626FA8ECCD
:1042C0002AF005017F6F020E6625606F000E6721E0
:1042D000616F000E6821626FA8EC2AF00501806F03
:1042E000030E6625606F000E6721616F000E682166
:1042F000626FA8EC2AF00501816F80C56AF56B6BCF
:104300006C6B6D6B6CC56DF56BC56CF56AC56BF54B
:104310006A6B7FC56EF56F6B706B716B6FC571F5F6
:104320006EC570F56F6B6E6B7EC572F5736B746BDB
:10433000756B72C575F5746B736B726B6E51721120
:10434000766F6F517311776F70517411786F71516F
:104350007511796F6A5176117A6F6B5177117B6F96
:104360006C5178117C6F6D5179117D6F81517A118B
:10437000666F7B51676F7C51686F7D51696F12006A
:10438000A0C56EF5A1C56FF5A2C570F5A3C571F501
:104390006E0E0501726FDB0E736FB60E746F3F0EFB
:1043A000756F3BEC0CF06EC5A4F56FC5A5F570C537
:1043B000A6F571C5A7F5A4C587F5A5C588F5A6C559
:1043C00089F5A7C58AF5000E05018B6F600E8C6F0D
:1043D0006A0E8D6F470E8E6F62EC10F087C5A8F5E0
:1043E00088C5A9F589C5AAF58AC5ABF5240E0501CE
:1043F000AC6F440EAD6FC40EAE6F4C0EAF6FACC55C
:1044000072F5ADC573F5AEC574F5AFC575F5A8C544
:104410006EF5A9C56FF5AAC570F5ABC571F53BEC96
:104420000CF06EC587F56FC588F570C589F571C547
:104430008AF5000E05018B6F000E8C6F7A0E8D6F62
:10444000440E8E6F62EC10F087C5A0F588C5A1F50B
:1044500089C5A2F58AC5A3F51200D5EC2BF0000999
:10446000D8B435EF22F037EF22F092EF22F00601B8
:10447000C751A0EC24F00501686F06019F510501AA
:10448000ED25EE25EF2506019E250501682506018F
:10449000A2250501EC2506019C25140F0501676F77
:1044A000530EBFEC28F0470EBFEC28F00501685111
:1044B000BFEC28F006019F51BFEC28F006019E5189
:1044C000BFEC28F00601A351BFEC28F00601A25171
:1044D000BFEC28F00501EF51BFEC28F00501EE51CB
:1044E000BFEC28F00501ED51BFEC28F00501EC51BF
:1044F000BFEC28F0120EBFEC28F0340EBFEC28F011
:10450000560EBFEC28F0780EBFEC28F006019D5146
:10451000BFEC28F006019C51BFEC28F00501675163
:10452000BFEC28F012000501FC51D8A49AEF22F04C
:104530009CEF22F0CEEF22F0010EFC6F7E0E82EC9B
:104540002CF0BE8CBE84C694040101950095C68AE9
:10455000009B018BBE8AD5EC20F041C550F542C5C9
:1045600051F543C552F544C553F555EC1FF050C500
:104570005AF551C55BF55A500601B25D5B50B3590F
:10458000D8B0C5EF22F0C7EF22F0C9EF22F0010E3C
:10459000C86FBE9CA5EC2CF0F5EF22F0FC05D8A46A
:1045A000D4EF22F0D6EF22F0F5EF22F00601C85149
:1045B000D8B4DDEF22F0DFEF22F0E2EF22F0FB6B68
:1045C000CAEF22F00501FC6BE20E82EC2CF0BE9AE1
:1045D000C68A0401009B019BBE94C6940195009578
:1045E000010E0601FB6FCAEF22F01200000E05015A
:1045F000606F240E616FF40E626F000E636F6DC505
:1046000071F56EC572F5D89071377237D8907137E1
:104610007237D89071377237D89071377237D89017
:104620007137723771C564F572C565F5666B676B76
:10463000A9EC23F0FF0E05016025736FFF0E6121C9
:10464000746F73C560F574C561F523EC2CF0D890D8
:1046500005017431716F7331606F71C561F529ECBB
:104660002CF0AEEC2CF0B0EC2CF06FC560F570C502
:1046700061F542EC2AF0000E0501616F000E606FDB
:1046800029EC2CF0AEEC2CF0020E0501726F040E3A
:10469000716FBA0EE82EFED7712FFCD7722FFAD7A2
:1046A00000001200000E016E240E026EF40E036E66
:1046B000000E046E0EC512F50FC513F5D890123614
:1046C0001336D89012361336D89012361336D89047
:1046D00012361336D8901236133612C505F513C5A7
:1046E00006F5076A086A4EEC24F0FF0E0124146EEA
:1046F000FF0E0220156E14C501F515C502F56FEC0D
:104700002CF0D8901530126E1430016E12C502F5DF
:1047100074EC2CF0B6EC2CF0B8EC2CF010C501F5D4
:1047200011C502F508EC2BF0000E026E000E016EB2
:1047300074EC2CF0B6EC2CF0020E136E040E126E1C
:10474000BA0EE82EFED7122EFCD7132EFAD700D0C1
:104750001200000E0501686F000E696F000E6A6F8F
:10476000000E6B6F6451651166116711D8B4BBEF11
:1047700023F0BDEF23F0F3EF23F0010E6C6FC7EFD2
:1047800023F0D89064376537663767376C2B67AF8F
:10479000CCEF23F0CEEF23F0C1EF23F0D8906837B1
:1047A00069376A376B376451605D6551615966518D
:1047B000625967516359D8A0E0EF23F0E2EF23F08C
:1047C000EBEF23F06451605F6551615B6651625BA2
:1047D0006751635B6881D8906733663365336433B0
:1047E0006C2FCEEF23F068C560F569C561F56AC529
:1047F00062F56BC563F51200140E0501666F000EBD
:10480000676F380E686FB2EC29F066C5F0F567C5C2
:10481000F1F5000E0501666F000E676F380E686FC8
:104820004CEC21F066C5ECF567C5EDF568C5EEF515
:1048300069C5EFF5050E0501666F000E676F380E4E
:10484000686F4CEC21F066C588F667C589F668C5C7
:104850008AF669C58BF60A0E0501666F000E676F52
:10486000380E686F4CEC21F066C584F667C585F696
:1048700068C586F669C587F6190E0501666F000ED4
:10488000676F380E686F4CEC21F066C58CF667C513
:104890008DF668C58EF669C58FF61200000E096E9A
:1048A000000E0A6E000E0B6E000E0C6E0550061008
:1048B00007100810D8B45FEF24F061EF24F097EFF1
:1048C00024F0010E0D6E6BEF24F0D89005360636FD
:1048D000073608360D2A08AE70EF24F072EF24F088
:1048E00065EF24F0D89009360A360B360C360550A1
:1048F000015C065002580750035808500458D8A0CD
:1049000084EF24F086EF24F08FEF24F00550015E51
:104910000650025A0750035A0850045A0980D8908A
:1049200008320732063205320D2E72EF24F009C527
:1049300001F50AC502F50BC503F50CC504F5120017
:104940000501666F050166B1A8EF24F0ACEF24F015
:10495000606B602BAEEF24F00501606B66B3B3EFC4
:1049600024F0B7EF24F0020E616FB9EF24F00501D7
:10497000616B66B5BEEF24F0C2EF24F0040E626FE7
:10498000C4EF24F00501626B66B7C9EF24F0CDEFE8
:1049900024F0080E636FCFEF24F00501636B66B956
:1049A000D4EF24F0D8EF24F0100E646FDAEF24F087
:1049B0000501646B66BBDFEF24F0E3EF24F0200E0B
:1049C000656FE5EF24F00501656B655164116311B6
:1049D0006211611160111200A790E60E0601E76FE7
:1049E000380EE86FA792140EE56F540EE66FA79687
:1049F000440EE96F590EEA6F0201CB6BCD6BCF6BA2
:104A0000B00ED16F900ED26FD36BA00ED46F010E8B
:104A1000D56F2E0ED66FD76B800ED86FD96B840EE4
:104A20000501606F590E616F9EEC2BF0820E05013F
:104A3000606F590E616F8FEC2BF0800E0501606F77
:104A4000590E616F80EC2BF0000E0601B16F000E65
:104A5000B06F0501FB6BFA6B400EF96FF86BF76BEB
:104A6000F66BA780A7861200BE6ABF6AC06AC16AD9
:104A7000C26A0401026B0A6B126B226BAB0EC66E2C
:104A8000D80EC76E180EC86EC968080ECA6E800EA2
:104A9000006F180E086F140E106F016B096B116B0D
:104AA000216B03690B691369236B04690C69146931
:104AB000080E246F0201896B886B876B866B050E6D
:104AC000766F050E406F3E6B010E3F6F260E056F31
:104AD000180E136F0401056B066B076B0D6B0E6BE5
:104AE0000F6B156B166B176B256B266B276B120004
:104AF00060C566F561C567F599EF25F06407D8A034
:104B0000650762C5D9F463C5DAF4624B632B66C5E9
:104B1000E1F467C5E2F4664B672BDFC4E7F4E750C6
:104B2000D8A495EF25F097EF25F099EF25F0ACEF9D
:104B300025F0050164516511D8A4A1EF25F0A3EF7C
:104B400025F07EEF25F0ACEF25F066C5D9F467C5FA
:104B5000DAF4DF6A664B672B6407D8A0650764291F
:104B600006E16529D8A4B7EF25F0B9EF25F0A5EF48
:104B700025F01200AA0E0501616F550E606F2FEC33
:104B80002CF068C560F569C561F56AC562F5050177
:104B90006C51636FE3EC27F093EC2CF0ECEC2BF012
:104BA0000009D8A4D6EF25F0D8EF25F0CEEF25F0F8
:104BB000AA0E0501616F550E606F2FEC2CF0010EEF
:104BC00005016825606F000E6921616F000E6A2182
:104BD000626F6BC563F5E3EC27F093EC2CF0ECEC23
:104BE0002BF00009D8A4F7EF25F0F9EF25F0EFEF4F
:104BF00025F01200820EF66E580EF76E000EF86E5B
:104C000001EEF1F210EE0BF00900F5C4EEF4E55000
:104C1000E150FAE17C0EF66E590EF76E000EF86E5A
:104C20000900F5C4FDF50900F5C4FEF50900F5C459
:104C3000FFF501EE00F3800EEE6AE806FDE101EEFD
:104C400000F2DF0EEE6AE806FDE101EEECF1110E76
:104C5000EE6AE806FDE15F6A5E6A0401080E5D6FB8
:104C6000000E5E6F000E5F6F000EF86E0001C2EF67
:104C70001BF0AA0E026E550E016E79EC2CF009C5E0
:104C800001F50AC502F50BC503F50D50046E3FECA6
:104C900028F0ABEC2CF018EC2CF00009D8A453EF62
:104CA00026F055EF26F04BEF26F0AA0E026E550EB9
:104CB000016E79EC2CF0010E0924016E000E0A2021
:104CC000026E000E0B20036E0CC504F53FEC28F0BD
:104CD000ABEC2CF018EC2CF00009D8A472EF26F005
:104CE00074EF26F06AEF26F01200010E0601FB6F4A
:104CF000BE9CBF98C798BF9AC78ABF9AC78AD69EDC
:104D0000C090C092C09AC09CB4EC2CF0C094C894DF
:104D1000040111951095C09EC88EC096C896119733
:104D20001097BF92C79209930893BF94C7940995AF
:104D30000895BF90C79009910891BE86C6960197C5
:104D40000097BE98C68801990099BE9AC68A009BB2
:104D5000019BBE94C694019500951200B4C601F55E
:104D6000B5C602F52DEC29F00601E351E411D8B4E3
:104D7000BCEF26F0BEEF26F0E5EF26F002D8CBEF31
:104D800026F00500FA6EE351FD6EE451FE6EF85018
:104D9000FF6EFA5012000601B84BB92BB95109E168
:104DA0000F0EB85DD8A0D7EF26F0D9EF26F0E5EFCB
:104DB00026F0010EC96F000EB96F000EB86F050125
:104DC000F24BF32B0601B64BB72BB1981200000E35
:104DD0000501686F000E696F000E6A6F000E6B6F41
:104DE00060A1F5EF26F0F7EF26F0FFEF26F0645113
:104DF00068276551692366516A2367516B23D890F0
:104E00006437653766376737D89063336233613309
:104E100060336051611162116311D8A412EF27F061
:104E200014EF27F0F0EF26F068C560F569C561F56D
:104E30006AC562F56BC563F51200606A020E616EA9
:104E4000626A9F0E636E0F0E646E030E656E666A75
:104E5000676A686A6A6AD00E6B6E070E6C6ED00E57
:104E60006D6E070E6E6EB29CB29E67906792A29EA8
:104E7000A29C000E0501606F000E616F4CEC2CF0DF
:104E8000000E0501606F000E616F47EC2CF0000E04
:104E90000501606F000E616F51EC2CF0800E696EA1
:104EA0001200C082D5EC20F041C550F542C551F545
:104EB00043C552F544C553F555EC1FF050C5F0F508
:104EC00051C5F1F50501FF51F0250601B26F000E45
:104ED0000501F1210601B36F010E0F6E2C0E0E6E4F
:104EE000000E116EFA0E106E52EC23F0140E096EC5
:104EF000000E0A6E380E0B6EF0C50CF5F1C50DF5FF
:104F000039EC26F0C0921200C08E030E0501616FCD
:104F1000080E606F770EE82EFED7602FFCD7612F4A
:104F2000FAD7BF94020E0501616F040E606FBA0ECE
:104F3000E82EFED7602FFCD7612FFAD70000C7926A
:104F400004010A930983BF82290E0501616F960E41
:104F5000606F7F0EE82EFED7602FFCD7612FFAD747
:104F600099EC2CF0C09E12000301F39FD96BDA6B11
:104F7000DB6BDC6BDF6BE06BE56BE76B140EEC6FF0
:104F8000EE6BEF6BD86BF06BF16BF26BF46B180E92
:104F9000F56F100EF66FF76B030EF86F070EFA6FD2
:104FA000F96B000E0601C26F000EC36F000EC06FDA
:104FB000000EC16FCA6BAF949F94B090A090840E06
:104FC0000301F36F1200000ED6BE010E0501676FDC
:104FD00062C545F060C564F561C565F562C566F5F5
:104FE00065C564F566C565F5666B64510001446F7F
:104FF00060C543F063C546F04151F80B0309416FAA
:10500000D69E00015FC542F05E50426F40810501AF
:1050100067B102D0D69E01D0D68EF80E000141179E
:10502000120075EC26F0C090B2EC2CF0D68E010E7A
:105030000601FB6FC86B0501FF51F0250601B26F39
:10504000000E0501F1210601B36F0501FC6BE20EB4
:105050006AEC2CF09FEC2CF030EF28F003000000FD
:105060000601FB51D8A437EF28F039EF28F02EEFD6
:1050700028F09CEC2CF0B99695EC28F01200000E6C
:10508000D6BE010E086E03C545F001C505F502C583
:1050900006F503C507F506C505F507C506F5076A54
:1050A00005500001446F01C543F004C546F041516D
:1050B000F80B0309416FD69E00015FC542F05E50B8
:1050C000426F408108B002D0D69E01D0D68EF80E35
:1050D0000001411712000501FE51D8A472EF28F01B
:1050E00074EF28F08FEF28F006019A4B9B2B9BBFA3
:1050F00083EF28F09B5109E10F0E9A5DD8A083EF52
:1051000028F085EF28F094EF28F0010E0501FE6FDE
:10511000000E06019B6F000E9A6F94EF28F0000EB0
:1051200006019B6F000E9A6F1200BE8CBF98C78855
:10513000C79ABF9AC894040111851095B4EC2CF05D
:10514000C89EC09EC896040111971097C792C79435
:10515000BF92BF94C7900891BF90BE96C696019724
:105160000097BE84C69401950095C6880099018970
:10517000BE88C68A009B018BBE8AD68E12000501AE
:10518000616FA7B2C6EF28F0C8EF28F0CCEF28F087
:1051900061C5C9F2E4EF28F00501F951D8B4D3EFA5
:1051A00028F0D5EF28F0E4EF28F0400EFB25D96E6B
:1051B000DA6A070EDA2261C5DFF4FB293F0B606F64
:1051C00060C5FBF5A792F907A7821200000E050142
:1051D0009B1B000E9C1B000E9D1B800E9E1B97C5EB
:1051E00087F598C588F599C589F59AC58AF59BC54F
:1051F0008BF59CC58CF59DC58DF59EC58EF5DFECB8
:1052000009F087C597F588C598F589C599F58AC5C8
:105210009AF51200C08E030E0501616F080E606FD3
:10522000770EE82EFED7602FFCD7612FFAD7BF92FA
:10523000C79404010A950985BF84290E0501616F91
:10524000960E606F7F0EE82EFED7602FFCD7612F81
:10525000FAD799EC2CF0C09E120003011EA533EF83
:1052600029F035EF29F04BEF29F01EB13AEF29F084
:105270003DEF29F0010E3EEF29F0000E036E0250C3
:105280001D6F01C51CF303B002D01E9102D00301B3
:105290001E814FEF29F002501D6F01C51CF3120053
:1052A00003011E911F6B206B010E216F810E1D6F7C
:1052B0000C0E1C6F1D510501606F03011C5106018E
:1052C000B46F60C5B5F6860EE36F590EE46F000E3D
:1052D000E16F000EE26FB198A188B19A350E03011B
:1052E0001E6F1200D69AAF90D6808E0E0501606FA9
:1052F000590E616F60EC2CF09F80B490D6928C0EAA
:105300000501606F590E616F5BEC2CF0A480B890C2
:10531000D694880E0501606F590E616F56EC2CF023
:10532000A88012000501FE51D8A499EF29F09BEF47
:1053300029F0A4EF29F0C08EC79004010A910981D9
:10534000BF80C08CB1EF29F0BF90D0AEAAEF29F09A
:10535000ACEF29F0ADEF29F0C09EC79004010A918F
:10536000C09C120066C560F567C561F568C562F549
:10537000A8EC2AF005016B6F010E6625606F000E28
:105380006721616F000E6821626FA8EC2AF00501A9
:105390006C6F6B51696F6C51666F69C567F5120070
:1053A000A1EC16F0C8C5DCF5C9C5DDF5CAC5DEF54A
:1053B000CBC5DFF5DCC5A0F5DDC5A1F5DEC5A2F5E1
:1053C000DFC5A3F5C0EC21F0A0C5D8F5A1C5D9F57E
:1053D000A2C5DAF5A3C5DBF5120005016051611124
:1053E00062116311D8B4F7EF29F0F9EF29F001EF5A
:1053F0002AF0000E601B000E611B000E621B800E67
:10540000631B60C560F561C561F562C562F563C582
:1054100063F51200400E0501F96111EF2AF013EF58
:105420002AF025EF2AF0400EFA25D96EDA6A070E27
:10543000DA22DF500201C96F0501FA293F0B016E24
:1054400001C5FAF5F92B26EF2AF0A7921200000EFB
:105450000501F725D96EDA6A070EDA22DF50616F8F
:10546000F7293F0B606F60C5F7F5A790F651D8B4E8
:105470003CEF2AF03EEF2AF03FEF2AF0F607A78034
:10548000615112004DEF2AF0060E0501626F300ED9
:10549000E82EFED7622FFCD7000005016007D8A0D8
:1054A0006107602906E16129D8A459EF2AF05BEF72
:1054B0002AF044EF2AF012000501FE51D8A463EF50
:1054C0002AF065EF2AF06FEF2AF0010EFE6F000E52
:1054D00006019B6F000E9A6FC09C75EF2AF0FE6B61
:1054E000000E06019B6F000E9A6F1200D5EC2BF098
:1054F0000009D8B47EEF2AF080EF2AF08EEF2AF070
:10550000570EBFEC28F0030E05016E6FE80E6D6FAD
:10551000000E706F640E6F6FF6EC22F01200060141
:10552000DF51E011D8B497EF2AF099EF2AF0A6EFF7
:105530002AF002D8A6EF2AF00500FA6EDF51FD6EC0
:10554000E051FE6EF850FF6EFA501200B99612004C
:1055500062C545F060C563F561C564F562C565F572
:1055600064C563F565C564F50501656B63510001AC
:10557000446F60C543F0F80E411740814651120058
:105580000601BA51BB11D8B4C8EF2AF0CAEF2AF00D
:10559000D7EF2AF002D8D7EF2AF00500FA6EBA51F9
:1055A000FD6EBB51FE6EF850FF6EFA5012001200F5
:1055B0000601BC51BD11D8B4E0EF2AF0E2EF2AF0A9
:1055C000EFEF2AF002D8EFEF2AF00500FA6EBC5197
:1055D000FD6EBD51FE6EF850FF6EFA5012001200C3
:1055E0000601BE51BF11D8B4F8EF2AF0FAEF2AF045
:1055F00007EF2BF002D807EF2BF00500FA6EBE5133
:10560000FD6EBF51FE6EF850FF6EFA501200120090
:1056100012EF2BF0060E036E300EE82EFED7032E8F
:10562000FCD700D00106D8A00206012806E1022816
:10563000D8A41DEF2BF01FEF2BF00AEF2BF0120078
:10564000E1EC2BF034EC25F0B4EC27F050EC29F031
:105650004CEC2BF07EEC2CF08AEC2CF0ADEC2BF02B
:105660001DEC27F0ECEC24F072EC29F0120005ECB4
:105670001BF0A0C5BEF5A1C5BFF5A2C5C0F5A3C569
:10568000C1F54EEC1EF0BEC5A2F6BFC5A3F665EC93
:1056900015F02DEC22F01200040E0301326F316B75
:1056A000336B300E2F6F2E6B260E0601DF6F450E0B
:1056B000E06FB996A986F90E0301306F1200C89EFB
:1056C000C09EC790BF90C792C794BF92BF94C79A1D
:1056D000BF9AC69C04011095C894B4EC2CF012003B
:1056E0000301EB510501636F626B0301EA51050190
:1056F0006225606F0301000E05016321616F1200D6
:10570000050160516111D8B488EF2BF08AEF2BF0BE
:105710008EEF2BF060C5AAF661C5ABF6120005014D
:1057200060516111D8B497EF2BF099EF2BF09DEFFA
:105730002BF060C5ACF661C5ADF6120005016051F5
:105740006111D8B4A6EF2BF0A8EF2BF0ACEF2BF043
:1057500060C5AEF661C5AFF612000001606B6D0E5C
:10576000616F010E636F780E646F600E656F060ED9
:10577000666F676B686B1200B890CEB6C2EF2BF005
:10578000C4EF2BF0C6EF2BF00601FB6BC0EC2AF048
:1057900012000501F651D8A4D0EF2BF0D3EF2BF077
:1057A000010ED4EF2BF0000E12000501F951D8A420
:1057B000DCEF2BF0DFEF2BF0010EE0EF2BF0000E13
:1057C0001200600E0001AD6FAF6BB36B050EB16FD1
:1057D000B06B400EAC6F1200000140B1F2EF2BF045
:1057E000F5EF2BF0010EF6EF2BF0000E1200030187
:1057F000F3A1FDEF2BF000EF2CF0010E01EF2CF0E8
:10580000000E12000301F3A108EF2CF00BEF2CF0B7
:10581000010E0CEF2CF0000E12000301EB51046E90
:10582000036AEA510324016E000E0420026E120086
:10583000000140B11EEF2CF021EF2CF0010E22EF01
:105840002CF0000E120060C563F405016151646E16
:10585000120060C56BF4050161516C6E1200050108
:1058600061515E6E60C55FF51200B4900601FB6B7E
:10587000D8EC2AF01200AF900601FB6BF0EC2AF096
:0D5880001200785634120A000500010101E3
:10588E0060C5EDF661C5EEF6120060C5EFF661C5B6
:10589E00F0F6120060C5EBF661C5ECF6120060C5BD
:1058AE00BAF661C5BBF6120060C5BCF661C5BDF6A1
:1058BE00120060C5BEF661C5BFF612000501606F2D
:1058CE0060C5ECF312000501606F60C52FF3120086
:1058DE0001C563F40250646E120001C56BF40250F0
:1058EE006C6E120002505E6E01C55FF51200C20EA4
:1058FE000301D76F1200016E01C52FF31200016E66
:10590E0001C5ECF312008DEC2CF012000001419F4A
:10591E0012001AEC1DF012005E6A5F6A120003019B
:10592E00F3811200BF92BF9412000301309F120048
:10593E000301308F12000201D79F12000301308F36
:10594E0012000301F38112005E6A5F6A120069841D
:10595E001200698E1200A9861200699E12006984D7
:10596E001200698E1200B0901200AF941200010165
:01597E000424
:105980001200120012001200120012001200120087
:020000040030CA
:080000008CFDF5F79FFFFFFFE7
:01000900FFF7
:00000001FF
